:04000000020039328F
:03000B000200955B
:0100130032BA
:01001B0032B2
:030023000200C315
:01002B0032A2
:03003300020117B0
:0300920002003633
:0300360002103B7A
:10009500C0E0C0D0758A30758CF8155574FFB5551C
:1000A5000C1556B556071557B557021558E555455C
:1000B50056455745587002C28CD0D0D0E032C0E0CA
:1000C500C082C083C0D075D00830981D74C0255C2F
:1000D5004015AF5C055CEF255B543F2400F582E4D9
:1000E500347DF583E599F0C298109902801BE55996
:1000F50004543FF559155AE55A600EE55924C0F5E3
:1001050082E4347CF583E0F599D0D0D083D082D0D9
:10011500E032C2DDC2DC32E58245836009A3E582B7
:100125004583000070F722AE82AF838E048F051ED3
:10013500BEFF011FEC4D600890FE0D12011C80EB07
:1001450022E582FF702774C0255A40FAC2ACE55AF1
:100155006014E55A2559543F24C0F582E4347CF5F2
:1001650083E510F08003851099055AD2AC22E5820B
:10017500FF701DE55C6019C2AC855B8275837DE00F
:10018500FE7F00E55B04543FF55B155CD2AC800453
:100195007EFF7FFF8E828F8322E582FF547F600280
:1001A500800A907FB4E0FE74034EF022BF020790F0
:1001B5007FC87403F022BF8206907FB87403F022D3
:1001C500E582FF547F600122907FB4E0FF74024F07
:1001D500F022E582FF6005907FB5EFF0907FB4E0F7
:1001E500FF74024FF022AF82747F5FFEBE022DEFD7
:1001F50030E71F907FBA7403F0907FB8F0907FBB13
:10020500E4F0907FB9F0F0907FBA7402F0907FB877
:10021500F022907FC87402F0907FCAF022C2057F59
:1002250000E522FE24F35003020393EE240A83F52E
:1002350082EE241183F583E473589C9C9C9CA1A4B5
:100245000F14508F9193020202020202020303036C
:10025500030303AE2174805EFDBD8012EE541F6062
:1002650002800B907F007401F07F0102039574807A
:100275005EFDBD801D741F5EFDBD01028006530637
:100285001FBE020E907F00E4F0907F01F07F020216
:100295000395D205020395D205020395020395AE97
:1002A5002174805EFDBD804BEE541F60028044AF1B
:1002B50027AE24BE01067C9C7D128039BE02067CD9
:1002C500AE7D128030BE0327E523FE24FB401CEEE5
:1002D50075F002A42422F582741335F0F583E493B6
:1002E500FBA3E493FE8B048E05800AD2058006D21B
:1002F500058002D205300503020395907FD4EDF009
:10030500907FD5ECF07F00020395D205020395AEF0
:100315002174805EFDBD802FEE546060028028EE62
:10032500541F60028021E523701DE5247019E52521
:100335007015E5267011E528700DA200E433FE90D6
:100345007F00F0AF278049D2058045E521FE20E7F3
:1003550035EE54606002802EEE541F60028027AE99
:1003650023BE02005020E524701CE5257018E52603
:100375007014E5277010E528700CEE24FF920090AC
:100385007FC9E4F0800AD205800680048002D20588
:1003950030050675820002019E8F820201D7E52A8B
:1003A500252B252FFAE43530FB789679107D00AEA4
:1003B50039AF3AC3EEF2EFF2EEF2EFF2EEF2EFF210
:1003C500EEF2EFF2EEF2EFF2EEF2EFF2EEF2EFF224
:1003D500EEF2EFF2E53DF2E53EF2EEF2EFF2EEF28D
:1003E500EFF2EEF2EFF2EEF2EFF2EEF2EFF2EEF204
:1003F500EFF2EEF2EFF2EEF2EFF2E53DF2E53EF26C
:10040500EA99FAEB9DFB50ACEFF222E54E24FFF59D
:1004150050E54F34FFF551AE437F00EE2552F552BE
:10042500EF3553F553AF43E52E70047EDD800D7433
:1004350020B52E047DFE80027DBE8D06907F96EE52
:10044500F0E539F090FFFE12011CEF14FEFF70D7A6
:10045500E52A6001142544FAE43545FB78967CFFCE
:10046500A93DAD3EAE39AF3AEEF2EFF2E9F2EDF26B
:10047500EC2AFAEC3BFB40F0EFF2C2AF7896E53D93
:10048500F2E53EF2AD39AE3AAF42EDF2EEF2DFFA09
:10049500907F98799A7896E53CF2E53DF2E53EF253
:1004A500E53BF0E3E540F0E36541D2AF22E52B25DE
:1004B5002FFAE43530FBEA9544FAEB9545FB4049C4
:1004C500EA9548FAEB9549FB403F789679087C0018
:1004D500AD3DAE39AF3AC3EEF2EFF2EEF2EFF2EE2A
:1004E500F2EFF2EEF2EFF2EDF2E53EF2EEF2EFF2BE
:1004F500EEF2EFF2EEF2EFF2EEF2EFF2EDF2E53EB2
:10050500F2EA99FAEB9CFB50CEC3E552954AE553C6
:10051500954B40030207D0020410E52E70047FE3DB
:1005250080027F00907F98EFF0E52E7022907F98F3
:1005350074C3F0907F96E539F074CCF090FFFF120C
:10054500011C907F96E539F0907F9874E3F0229036
:100555007F96E539F07420B52E047F7A80027F3AC4
:10056500907F96EFF090FFFF12011C907F96E53982
:10057500F022AE2C7F00E5312EFEE5323FFFAC2D9B
:100585007D00EC2EFEED3FFFE52E70047D0C800214
:100595007D08907F98EDF08E048F051EBEFF011F2C
:1005A500EC4D605CE52E70047DDD800D7420B52E6C
:1005B500047CFE80027CBE8C05907F96EDF0E539CB
:1005C500F090FFFE12011CE52E70047DDD800D7498
:1005D50020B52E047CFE80027CBE8C05907F96EDB6
:1005E500F0E539F090FFFE12011C8E05ED541F60F9
:1005F5000280A4C007C0061203A3D006D0078097C7
:100605001203A3E52E70047FE380027F00907F989C
:10061500EFF022AE82740F552E5EFFE52EC4540F07
:10062500FD6207EF7005740F552EFF74205E4207BB
:10063500907F96E539F0E52E701C907F9874E7F071
:10064500907F96749CF07494F090FFFF12011C90BB
:100655007F96749CF022907F987410F090000012A1
:10066500011CEF30E1227420B52E047EF280027E5B
:10067500B2907F96EEF090FFFE12011C907F96E5FA
:1006850039F090000012011CEF30E0227420B52EE5
:10069500047EEA80027EAA907F96EEF090FFFE121D
:1006A500011C907F96E539F090000012011CEF20A7
:1006B500E5137420B52E047FFE80027FBE907F96E1
:1006C500EFF0E539F0907F98E4F090000002011C0E
:1006D500C203C204AE437F00EE24FFF552EF34FFA0
:1006E500F553E54C546060028003120577854C8212
:1006F500854D83120618E52E70047F0C80027F0855
:10070500907F98EFF0E54C30E5030207AFAE2C7F04
:1007150000E52E7003FD80027D017C00EEC39DFE89
:10072500EF9CFF8E048F051EBEFF011FEC4D603050
:10073500E52E70047DDD800D7420B52E047CFE80D1
:10074500027CBE8C05907F96EDF0E539F090FFFEBA
:1007550012011CC007C0061203A3D006D00780C330
:10076500AE46AF478E048F051EBEFF011FEC4D60E0
:1007750039E52E70047DDD800D7420B52E047CFED8
:1007850080027CBE8C05907F96EDF0E539F090FFF8
:10079500FE12011C8E05ED540F600280C7C007C014
:1007A500061203A3D006D00780BA7E0C7F008E0404
:1007B5008F051EBEFF011FEC4D600DC007C0061260
:1007C50003A3D006D00780E6020410E52E70047F4F
:1007D500E380027F00907F98EFF0D20422C2AF78C9
:1007E50096E53DF2E53EF2AD39AE3AAF42EDF2EEB9
:1007F500F2DFFA78E3747EF2087400F2907F98795C
:100805009A7A1FAB50AC510C800B78E5E3F2E540CA
:10081500F0E36541F27896E53CF2E53DF2E53EF21E
:10082500E53BF01BAF42EDF2EEF2DFFABBFF04DC75
:1008350002800FDAD578E5E3F2E540F0E36541F2B1
:10084500804278E5E3F2E540F0E36541F2C002D28B
:10085500AF1204B2D00230040978B97420C39A23C8
:10086500F222C2AF7896E53DF2E53EF2AD39AE3AF9
:10087500AF42EDF2EEF2DFFA907F98799AAB50AC89
:10088500510CDA917896E53CF2E53DF2E53EF2E56C
:100895003BF01AE53AF2EA2BF550EA1C3CF55155C6
:1008A500502402FA78E5E3F2E540F0E36541F27899
:1008B500B97440F2DA031204B2D2AF22C28CE4F565
:1008C50055F556F557F558C203D2041205770205BA
:1008D5001F7539BA753AFA753CF8753DFA753EDA01
:1008E500753B2C753F28754008754100747F552967
:1008F500FFBF05028014BF09028027BF450280574C
:10090500BF47028041BF494F80447F007539FA7562
:100915003ABA753CB8753DBA753E9A752E20C20235
:10092500803C7F017539FC753AFE753C7E753DFA54
:10093500753EDE753B04753F0C75401C7541807531
:100945002E00C20280187F038F2ED20280107F04F2
:10095500752E03D20280077F02752E03D202EF9017
:10096500126093F52AEF90126593F52BEF75F0025F
:10097500A4FDAEF02474F582EE3412F583E493F50C
:100985002FA3E493F530EF90126A93F52CEF9012B4
:100995006F93F52DED247EF582EE3412F583E49305
:1009A500F531A3E493F532ED2488F582EE3412F5A2
:1009B50083E493F533A3E493F534ED2492F582EEC5
:1009C5003412F583E493F535A3E493F536E529333D
:1009D50092015011E52C30E0067EB67F1580047E2D
:1009E500B57F1680047EFF7F0F8E378F3822858274
:1009F500618583627D00200003020F8DE522FC24C2
:100A0500F15003020F5FEC240A83F582EC24138373
:100A1500F583E47337A9E0532C5B758575393C88FC
:100A2500E1E4190A0A0A0B0C0C0C0C0D0E0E0E0E45
:100A35000E0F907FB8E0FB20E1F8E52120E749E5BE
:100A450027FB6044EB24BF5003752740756300E521
:100A550063FA3395E0FBAE277F00C3EA9EEB648023
:100A65008FF063F08095F0502FE56324C0FEE434E9
:100A75007DFFE5632561F582E43562F583E0FB8E54
:100A8500828F83F0056380C7907DC0E523F0907D5C
:100A9500C1E524F07D028002AD63907FB9EDF07D64
:100AA50000020F93E523FF54606003020F93740F58
:100AB500552E5F600D7E008F828E83C0051206184D
:100AC500D005C005120577D005E52330E303020FF5
:100AD50093C00512051FD005020F9320040EC28C8A
:100AE500758282C0051201EBD005D204C203740AD7
:100AF5002561FEE43562FF8E828F83E0F555A3E024
:100B0500F556A3E0F557A3E0F558C28CE523FF544D
:100B1500607027740F552E5F600D7E008F828E8367
:100B2500C005120618D005C005120577D005E523C6
:100B350020E307C00512051FD005E5554556455765
:100B45004558600AD203758A30758CF8D28C20041A
:100B550010C28C758282C0051201EBD005C203D28A
:100B650004AF247E00AA237B00EE4AF54CEF4BF53B
:100B75004D852554AE61AF628E828F83E0F544A327
:100B8500E0F54574022561FEE43562FF8E828F83B0
:100B9500E0F546A3E0F54774042561FEE43562FF00
:100BA5008E828F83E0F548A3E0F54974062561FE42
:100BB500E43562FF8E828F83E0F54AA3E0F54B852D
:100BC5006182856283A3A3A3A3A3A3A3A3E0F542A4
:100BD500856182856283A3A3A3A3A3A3A3A3A3E0A3
:100BE500F543E5427003754201E543700375430122
:100BF500854210751100854882854983C00512120A
:100C05003385824E85834FD005E54E454F7005757A
:100C15004E01F54F300303020F93C0051206D5129E
:100C250007E2D005020F93856182856283E0F55561
:100C3500A3E0F556A3E0F557A3E0F558E55545566D
:100C450045574558600B758A30758CF8D28C020F64
:100C550093C28C020F93855F82856083E555F0E52D
:100C650056A3F0E557A3F0E558A3F07D04020F93D2
:100C7500758282C0051201EB1208C1D005020F93DF
:100C8500856182856283E0F52A856182856283A319
:100C9500E0F52B74022561FEE43562FF8E828F83B9
:100CA500E0F52FA3E0F530856182856283A3A3A3D8
:100CB500A3E0F52C856182856283A3A3A3A3A3E0AA
:100CC500F52D74062561FEE43562FF8E828F83E083
:100CD500F531A3E0F53274082561FEE43562FF8E37
:100CE500828F83E0F533A3E0F534740A2561FEE4D1
:100CF5003562FF8E828F83E0F535A3E0F536740CFF
:100D05002561FEE43562FF8E828F83E0F537A3E02F
:100D1500F53820022BC374E8952F740395305020C5
:100D2500752E007539FC753AFE753C7E753DFA7574
:100D35003EDE753B04753F0C75401C754180802671
:100D45003002047F0380027F208F2E7539BA753AF1
:100D5500FA753CF8753DFA753EDA753B2C753F28FA
:100D6500754008754100C0051208C1D005020F93F2
:100D7500AE5FAF608E828F83E52AF08E828F83A36C
:100D8500E52BF08E828F83A3A3E52FF08E828F83D0
:100D9500A3A3A3E530F08E828F83A3A3A3A3E52CA1
:100DA500F08E828F83A3A3A3A3A3E52DF074062E53
:100DB500F582E43FF583E531F074072EF582E43FD3
:100DC500F583E532F074082EF582E43FF583E533CB
:100DD500F074092EF582E43FF583E534F0740A2EAC
:100DE500F582E43FF583E535F0740B2EF582E43F9B
:100DF500F583E536F0740C2EF582E43FF583E5378F
:100E0500F0740D2EF582E43FF583E538FBF0740EA2
:100E15002EF582E43FF5837410F0142EF582E43F3D
:100E2500F583E4F074102EF582E43FF583E4F07D5C
:100E350011020F93020F93E52724BF500375274036
:100E4500756300E563FB3395E0FEAA277F00C3EBDE
:100E55009AEE64808FF063F08095F05018E5632575
:100E650061F582E43562F583E0F51085258212018E
:100E750046056380CE7401B52304E55A70FC7D00F8
:100E8500020F93E528600575273F800BAF27BF3F0D
:100E95000040027F3F8F27756300E563FB3395E0D4
:100EA500FEAA277F00C3EB9AEE64808FF063F08083
:100EB50095F04003020F91E563255FFEE43560FF81
:100EC500852582C007C006120173AA82AB83D006AE
:100ED500D0078E828F83EAF0056380BE020F93E50B
:100EE50025701CE523FF70087440C3955AFD8005E5
:100EF500BF0102AD5C855F82856083EDF08008856A
:100F05005F82856083E4F0855F82856083A3E4F07A
:100F15007D02807AE521FF20E710E527700C852307
:100F250029C0051208D6D0058064530780BF805EAE
:100F35007402B52759AE5FAF608E828F83E529F0C5
:100F45000EBE00010F74FFB529047BFF80027B00F4
:100F55008E828F83EBF07D028034BCFF27AE5FAFBE
:100F6500608E828F837403F08E828F83A3E4F08E6C
:100F7500828F83A3A304F08E828F83A3A3A3E4F0BF
:100F85007D04800A7DFF80067DFF8002AD638D8232
:100F95002290000112012C907FD67408F09003E88E
:100FA50012012C907F93E4F0907F9C14F0907F9435
:100FB500E4F0907F9DF0907F957403F0907F9E7490
:100FC500FEF0758800758780758E10759850758947
:100FD50021758CF8758A30758DD9758B00D28E90F8
:100FE5007FDD7409F0907FAC7405F0907FADF090D3
:100FF5007FAE7419F0907FB1E4F0907FAFF075B8D3
:1010050001F5E875A89275927FF586C2007529C528
:101015001208D6E4F555F556F557F558C203D2042E
:10102500755900755A00755B00755C00907FD67424
:1010350006F075820022120F96E59120E403021254
:10104500177591EF907FA8E0FF0303543FFF24F449
:1010550040E7EFF5F0240B83F582E5F0241083F5E6
:1010650083E47380121B2439636C757E8790AE1000
:101075001111111111111111111111907FAB740181
:10108500F0907FE878217908E0F6A308D9FAE52100
:1010950020E72FE52845276029907FC5E4F07FC824
:1010A5008F061FEE6010907FB4E0FE30E30890FFDE
:1010B500CF12011C80EABFFF0975820012019E0252
:1010C500103EAF2174605FFEBE402BEF541F6002DF
:1010D5008024755F0075607F907EC01209F3E582FC
:1010E500FFFE30E70975820012019E02103E8E82D6
:1010F5001201D702103EE5215460600280061202FB
:101105002202103E75820012019E02103E907FABB6
:101115007402F002103E907FAB7404F002103E9012
:101125007FAB7408F0C2DCD2DD5387FE000000C23D
:10113500DD02103E907FAB7410F0C200C203D204F2
:10114500E52E70047FE380027F00907F98EFF0909A
:101155007F96E539F07582821201EB02103E907F91
:10116500AB7420F002103E907FA97401F002103E8E
:10117500907FAA7401F002103E907FA97402F002DC
:10118500103E907FAA7402F002103E907FA974046D
:10119500F020000975828212019E02103E30040380
:1011A50002103E1207E202103E907FAA7404F0304E
:1011B500000A907FC9E0FFBF08005009758202123E
:1011C500019E02103E907DC078217908E0F6A308C3
:1011D500D9FA907FB8E0FF20E1F8755F0075607E71
:1011E500907DC81209F3E582FFFE30E7097582029A
:1011F50012019E02103E907FC9E4F0C364808EF018
:1012050063F08095F0400302103E907FB9EEF00246
:10121500103E20030302103EE555455645574558F7
:0E122500600302103E1206D51207E202103ED0
:10126000131E17191914381E28280E020807070123
:101270000101010194021405F401F002F002EE01F3
:1012800006042201220122016607B306CC0999084F
:10129000990B6607B306990C991066161201100196
:1012A0000000004078120001000001020001090264
:1012B000200001010380640904010002FF00000412
:1012C00007058202400000070502024000000403F7
:1012D0000904220353007400610072006C0069006D
:1012E00067006800740020005800700072006500FC
:1012F000730073000C034500430048004F003200A8
:10130000100342006C006F0063006B0049004F0047
:10131000120342006C006F0063006B0049004F0035
:0C1320003000CE12D212F4120013101391
:101233007A10E4FBFCE58225E0F582E58333F58350
:10124300EB33FBEC33FCEB9510F5F0EC951140061A
:09125300FCABF0438201DADD225C
:06006800E478FFF6D8FD6C
:100046007900E94400601B7A0090132C780175A0B2
:1000560000E493F2A308B8000205A0D9F4DAF27519
:02006600A0FFF9
:10006E007800E84400600A790175A000E4F309D82D
:10007E00FC7800E84400600C7900900001E4F0A3E5
:04008E00D8FCD9FAC7
:0D00390075816312125CE5826003020036DF
:04125C007582002275
:00000001FF
